{
  "contractName": "Event",
  "abi": [
    {
      "inputs": [],
      "payable": false,
      "stateMutability": "nonpayable",
      "type": "constructor"
    },
    {
      "constant": true,
      "inputs": [],
      "name": "eventName",
      "outputs": [
        {
          "internalType": "string",
          "name": "",
          "type": "string"
        }
      ],
      "payable": false,
      "stateMutability": "view",
      "type": "function"
    },
    {
      "constant": true,
      "inputs": [
        {
          "internalType": "string",
          "name": "",
          "type": "string"
        },
        {
          "internalType": "uint256",
          "name": "",
          "type": "uint256"
        }
      ],
      "name": "mapPurchasers",
      "outputs": [
        {
          "internalType": "string",
          "name": "ticketid",
          "type": "string"
        },
        {
          "internalType": "string",
          "name": "userid",
          "type": "string"
        },
        {
          "internalType": "string",
          "name": "purchasedAt",
          "type": "string"
        }
      ],
      "payable": false,
      "stateMutability": "view",
      "type": "function"
    },
    {
      "constant": true,
      "inputs": [
        {
          "internalType": "string",
          "name": "",
          "type": "string"
        },
        {
          "internalType": "uint256",
          "name": "",
          "type": "uint256"
        }
      ],
      "name": "mapScans",
      "outputs": [
        {
          "internalType": "string",
          "name": "ticketid",
          "type": "string"
        },
        {
          "internalType": "string",
          "name": "scanDescription",
          "type": "string"
        },
        {
          "internalType": "string",
          "name": "scannedAt",
          "type": "string"
        }
      ],
      "payable": false,
      "stateMutability": "view",
      "type": "function"
    },
    {
      "constant": true,
      "inputs": [
        {
          "internalType": "string",
          "name": "",
          "type": "string"
        }
      ],
      "name": "mapTickets",
      "outputs": [
        {
          "internalType": "string",
          "name": "ticketid",
          "type": "string"
        },
        {
          "internalType": "string",
          "name": "ticketOwner",
          "type": "string"
        },
        {
          "internalType": "uint256",
          "name": "ownerPosition",
          "type": "uint256"
        }
      ],
      "payable": false,
      "stateMutability": "view",
      "type": "function"
    },
    {
      "constant": true,
      "inputs": [],
      "name": "totalSales",
      "outputs": [
        {
          "internalType": "uint256",
          "name": "",
          "type": "uint256"
        }
      ],
      "payable": false,
      "stateMutability": "view",
      "type": "function"
    },
    {
      "constant": false,
      "inputs": [
        {
          "internalType": "string",
          "name": "newEventName",
          "type": "string"
        }
      ],
      "name": "setNewEventName",
      "outputs": [
        {
          "internalType": "bool",
          "name": "",
          "type": "bool"
        }
      ],
      "payable": false,
      "stateMutability": "nonpayable",
      "type": "function"
    },
    {
      "constant": false,
      "inputs": [
        {
          "internalType": "string",
          "name": "newTicketId",
          "type": "string"
        },
        {
          "internalType": "string",
          "name": "userId",
          "type": "string"
        },
        {
          "internalType": "string",
          "name": "purchasedAt",
          "type": "string"
        }
      ],
      "name": "addTicket",
      "outputs": [
        {
          "internalType": "bool",
          "name": "",
          "type": "bool"
        }
      ],
      "payable": false,
      "stateMutability": "nonpayable",
      "type": "function"
    },
    {
      "constant": false,
      "inputs": [
        {
          "internalType": "string[]",
          "name": "newTicketsId",
          "type": "string[]"
        },
        {
          "internalType": "string[]",
          "name": "usersId",
          "type": "string[]"
        },
        {
          "internalType": "string[]",
          "name": "purchasedAt",
          "type": "string[]"
        }
      ],
      "name": "addTicketList",
      "outputs": [
        {
          "internalType": "bool",
          "name": "",
          "type": "bool"
        }
      ],
      "payable": false,
      "stateMutability": "nonpayable",
      "type": "function"
    },
    {
      "constant": true,
      "inputs": [],
      "name": "getTotalSales",
      "outputs": [
        {
          "internalType": "uint256",
          "name": "",
          "type": "uint256"
        }
      ],
      "payable": false,
      "stateMutability": "view",
      "type": "function"
    },
    {
      "constant": false,
      "inputs": [
        {
          "internalType": "string",
          "name": "ticketId",
          "type": "string"
        },
        {
          "internalType": "string",
          "name": "scanName",
          "type": "string"
        },
        {
          "internalType": "string",
          "name": "scannedAt",
          "type": "string"
        }
      ],
      "name": "addScan",
      "outputs": [
        {
          "internalType": "bool",
          "name": "",
          "type": "bool"
        }
      ],
      "payable": false,
      "stateMutability": "nonpayable",
      "type": "function"
    },
    {
      "constant": true,
      "inputs": [
        {
          "internalType": "string",
          "name": "ticketId",
          "type": "string"
        }
      ],
      "name": "getScans",
      "outputs": [
        {
          "components": [
            {
              "internalType": "string",
              "name": "ticketid",
              "type": "string"
            },
            {
              "internalType": "string",
              "name": "scanDescription",
              "type": "string"
            },
            {
              "internalType": "string",
              "name": "scannedAt",
              "type": "string"
            }
          ],
          "internalType": "struct Event.Scan[]",
          "name": "",
          "type": "tuple[]"
        }
      ],
      "payable": false,
      "stateMutability": "view",
      "type": "function"
    },
    {
      "constant": false,
      "inputs": [
        {
          "internalType": "string",
          "name": "ticketId",
          "type": "string"
        },
        {
          "internalType": "string",
          "name": "userid",
          "type": "string"
        },
        {
          "internalType": "string",
          "name": "purchasedAt",
          "type": "string"
        }
      ],
      "name": "addPurchasers",
      "outputs": [
        {
          "internalType": "bool",
          "name": "",
          "type": "bool"
        }
      ],
      "payable": false,
      "stateMutability": "nonpayable",
      "type": "function"
    },
    {
      "constant": true,
      "inputs": [
        {
          "internalType": "string",
          "name": "ticketId",
          "type": "string"
        }
      ],
      "name": "getPurchasers",
      "outputs": [
        {
          "components": [
            {
              "internalType": "string",
              "name": "ticketid",
              "type": "string"
            },
            {
              "internalType": "string",
              "name": "userid",
              "type": "string"
            },
            {
              "internalType": "string",
              "name": "purchasedAt",
              "type": "string"
            }
          ],
          "internalType": "struct Event.User[]",
          "name": "",
          "type": "tuple[]"
        }
      ],
      "payable": false,
      "stateMutability": "view",
      "type": "function"
    }
  ],
  "bytecode": "0x608060405234801561001057600080fd5b5033600160006101000a81548173ffffffffffffffffffffffffffffffffffffffff021916908373ffffffffffffffffffffffffffffffffffffffff1602179055506000600281905550612017806100696000396000f3fe608060405234801561001057600080fd5b50600436106100cf5760003560e01c80636605ff661161008c5780639a327d0f116100665780639a327d0f14610250578063e2b332d414610280578063f2442931146102b0578063f67a4476146102e2576100cf565b80636605ff66146101e45780637b61affe146102025780638043c9c014610232576100cf565b80632156a96c146100d45780633f2e37bd146100f2578063475f7677146101225780635d00f50f146101525780635d1608dd14610182578063604a7c13146101b4575b600080fd5b6100dc610314565b6040516100e99190611dd7565b60405180910390f35b61010c60048036036101079190810190611934565b610378565b6040516101199190611d09565b60405180910390f35b61013c60048036036101379190810190611934565b6104a8565b6040516101499190611d09565b60405180910390f35b61016c600480360361016791908101906118f3565b6105ed565b6040516101799190611cc5565b60405180910390f35b61019c600480360361019791908101906119cb565b6108aa565b6040516101ab93929190611d46565b60405180910390f35b6101ce60048036036101c991908101906118f3565b610acc565b6040516101db9190611d09565b60405180910390f35b6101ec610b66565b6040516101f99190611dd7565b60405180910390f35b61021c600480360361021791908101906118f3565b610b6c565b6040516102299190611ce7565b60405180910390f35b61023a610e29565b6040516102479190611d24565b60405180910390f35b61026a60048036036102659190810190611934565b610ec7565b6040516102779190611d09565b60405180910390f35b61029a6004803603610295919081019061181b565b61108c565b6040516102a79190611d09565b60405180910390f35b6102ca60048036036102c591908101906118b2565b61118e565b6040516102d993929190611d92565b60405180910390f35b6102fc60048036036102f791908101906119cb565b6112fe565b60405161030b93929190611d46565b60405180910390f35b6000600160009054906101000a900473ffffffffffffffffffffffffffffffffffffffff1673ffffffffffffffffffffffffffffffffffffffff163373ffffffffffffffffffffffffffffffffffffffff161461037057600080fd5b600254905090565b6000600160009054906101000a900473ffffffffffffffffffffffffffffffffffffffff1673ffffffffffffffffffffffffffffffffffffffff163373ffffffffffffffffffffffffffffffffffffffff16146103d457600080fd5b600060025490506103e485611520565b156103ee57600080fd5b6103f6611562565b604051806060016040528087815260200186815260200160008152509050806003876040516104259190611cae565b9081526020016040518091039020600082015181600001908051906020019061044f929190611583565b50602082015181600101908051906020019061046c929190611583565b5060408201518160020155905050610485868686610ec7565b506002600081548092919060010191905055506002548210925050509392505050565b6000600160009054906101000a900473ffffffffffffffffffffffffffffffffffffffff1673ffffffffffffffffffffffffffffffffffffffff163373ffffffffffffffffffffffffffffffffffffffff161461050457600080fd5b8361050e81611520565b61051757600080fd5b61051f611603565b604051806060016040528087815260200186815260200185815250905060058660405161054c9190611cae565b9081526020016040518091039020819080600181540180825580915050906001820390600052602060002090600302016000909192909190915060008201518160000190805190602001906105a2929190611583565b5060208201518160010190805190602001906105bf929190611583565b5060408201518160020190805190602001906105dc929190611583565b505050506001925050509392505050565b6060600160009054906101000a900473ffffffffffffffffffffffffffffffffffffffff1673ffffffffffffffffffffffffffffffffffffffff163373ffffffffffffffffffffffffffffffffffffffff161461064957600080fd5b6005826040516106599190611cae565b9081526020016040518091039020805480602002602001604051908101604052809291908181526020016000905b8282101561089f5783829060005260206000209060030201604051806060016040529081600082018054600181600116156101000203166002900480601f0160208091040260200160405190810160405280929190818152602001828054600181600116156101000203166002900480156107435780601f1061071857610100808354040283529160200191610743565b820191906000526020600020905b81548152906001019060200180831161072657829003601f168201915b50505050508152602001600182018054600181600116156101000203166002900480601f0160208091040260200160405190810160405280929190818152602001828054600181600116156101000203166002900480156107e55780601f106107ba576101008083540402835291602001916107e5565b820191906000526020600020905b8154815290600101906020018083116107c857829003601f168201915b50505050508152602001600282018054600181600116156101000203166002900480601f0160208091040260200160405190810160405280929190818152602001828054600181600116156101000203166002900480156108875780601f1061085c57610100808354040283529160200191610887565b820191906000526020600020905b81548152906001019060200180831161086a57829003601f168201915b50505050508152505081526020019060010190610687565b505050509050919050565b60058280516020810182018051848252602083016020850120818352809550505050505081815481106108d957fe5b906000526020600020906003020160009150915050806000018054600181600116156101000203166002900480601f0160208091040260200160405190810160405280929190818152602001828054600181600116156101000203166002900480156109865780601f1061095b57610100808354040283529160200191610986565b820191906000526020600020905b81548152906001019060200180831161096957829003601f168201915b505050505090806001018054600181600116156101000203166002900480601f016020809104026020016040519081016040528092919081815260200182805460018160011615610100020316600290048015610a245780601f106109f957610100808354040283529160200191610a24565b820191906000526020600020905b815481529060010190602001808311610a0757829003601f168201915b505050505090806002018054600181600116156101000203166002900480601f016020809104026020016040519081016040528092919081815260200182805460018160011615610100020316600290048015610ac25780601f10610a9757610100808354040283529160200191610ac2565b820191906000526020600020905b815481529060010190602001808311610aa557829003601f168201915b5050505050905083565b6000600160009054906101000a900473ffffffffffffffffffffffffffffffffffffffff1673ffffffffffffffffffffffffffffffffffffffff163373ffffffffffffffffffffffffffffffffffffffff1614610b2857600080fd5b60008080546001816001161561010002031660029004905014610b4a57600080fd5b8160009080519060200190610b60929190611624565b50919050565b60025481565b6060600160009054906101000a900473ffffffffffffffffffffffffffffffffffffffff1673ffffffffffffffffffffffffffffffffffffffff163373ffffffffffffffffffffffffffffffffffffffff1614610bc857600080fd5b600482604051610bd89190611cae565b9081526020016040518091039020805480602002602001604051908101604052809291908181526020016000905b82821015610e1e5783829060005260206000209060030201604051806060016040529081600082018054600181600116156101000203166002900480601f016020809104026020016040519081016040528092919081815260200182805460018160011615610100020316600290048015610cc25780601f10610c9757610100808354040283529160200191610cc2565b820191906000526020600020905b815481529060010190602001808311610ca557829003601f168201915b50505050508152602001600182018054600181600116156101000203166002900480601f016020809104026020016040519081016040528092919081815260200182805460018160011615610100020316600290048015610d645780601f10610d3957610100808354040283529160200191610d64565b820191906000526020600020905b815481529060010190602001808311610d4757829003601f168201915b50505050508152602001600282018054600181600116156101000203166002900480601f016020809104026020016040519081016040528092919081815260200182805460018160011615610100020316600290048015610e065780601f10610ddb57610100808354040283529160200191610e06565b820191906000526020600020905b815481529060010190602001808311610de957829003601f168201915b50505050508152505081526020019060010190610c06565b505050509050919050565b60008054600181600116156101000203166002900480601f016020809104026020016040519081016040528092919081815260200182805460018160011615610100020316600290048015610ebf5780601f10610e9457610100808354040283529160200191610ebf565b820191906000526020600020905b815481529060010190602001808311610ea257829003601f168201915b505050505081565b6000600160009054906101000a900473ffffffffffffffffffffffffffffffffffffffff1673ffffffffffffffffffffffffffffffffffffffff163373ffffffffffffffffffffffffffffffffffffffff1614610f2357600080fd5b83610f2d81611520565b610f3657600080fd5b610f3e6116a4565b6040518060600160405280878152602001868152602001858152509050600486604051610f6b9190611cae565b908152602001604051809103902081908060018154018082558091505090600182039060005260206000209060030201600090919290919091506000820151816000019080519060200190610fc1929190611583565b506020820151816001019080519060200190610fde929190611583565b506040820151816002019080519060200190610ffb929190611583565b50505050846003876040516110109190611cae565b90815260200160405180910390206001019080519060200190611034929190611624565b5060016004876040516110479190611cae565b9081526020016040518091039020805490500360038760405161106a9190611cae565b9081526020016040518091039020600201819055506001925050509392505050565b6000600160009054906101000a900473ffffffffffffffffffffffffffffffffffffffff1673ffffffffffffffffffffffffffffffffffffffff163373ffffffffffffffffffffffffffffffffffffffff16146110e857600080fd5b600060025490506000855190506000855190506000855190508181141580156111115750828214155b1561111b57600080fd5b60008090505b8381101561117b5761116d89828151811061113857fe5b602002602001015189838151811061114c57fe5b602002602001015189848151811061116057fe5b6020026020010151610378565b508080600101915050611121565b5060025484109450505050509392505050565b600381805160208101820180518482526020830160208501208183528095505050505050600091509050806000018054600181600116156101000203166002900480601f0160208091040260200160405190810160405280929190818152602001828054600181600116156101000203166002900480156112505780601f1061122557610100808354040283529160200191611250565b820191906000526020600020905b81548152906001019060200180831161123357829003601f168201915b505050505090806001018054600181600116156101000203166002900480601f0160208091040260200160405190810160405280929190818152602001828054600181600116156101000203166002900480156112ee5780601f106112c3576101008083540402835291602001916112ee565b820191906000526020600020905b8154815290600101906020018083116112d157829003601f168201915b5050505050908060020154905083565b600482805160208101820180518482526020830160208501208183528095505050505050818154811061132d57fe5b906000526020600020906003020160009150915050806000018054600181600116156101000203166002900480601f0160208091040260200160405190810160405280929190818152602001828054600181600116156101000203166002900480156113da5780601f106113af576101008083540402835291602001916113da565b820191906000526020600020905b8154815290600101906020018083116113bd57829003601f168201915b505050505090806001018054600181600116156101000203166002900480601f0160208091040260200160405190810160405280929190818152602001828054600181600116156101000203166002900480156114785780601f1061144d57610100808354040283529160200191611478565b820191906000526020600020905b81548152906001019060200180831161145b57829003601f168201915b505050505090806002018054600181600116156101000203166002900480601f0160208091040260200160405190810160405280929190818152602001828054600181600116156101000203166002900480156115165780601f106114eb57610100808354040283529160200191611516565b820191906000526020600020905b8154815290600101906020018083116114f957829003601f168201915b5050505050905083565b6000806003836040516115339190611cae565b908152602001604051809103902060000180546001816001161561010002031660029004905014159050919050565b60405180606001604052806060815260200160608152602001600081525090565b828054600181600116156101000203166002900490600052602060002090601f016020900481019282601f106115c457805160ff19168380011785556115f2565b828001600101855582156115f2579182015b828111156115f15782518255916020019190600101906115d6565b5b5090506115ff91906116c5565b5090565b60405180606001604052806060815260200160608152602001606081525090565b828054600181600116156101000203166002900490600052602060002090601f016020900481019282601f1061166557805160ff1916838001178555611693565b82800160010185558215611693579182015b82811115611692578251825591602001919060010190611677565b5b5090506116a091906116c5565b5090565b60405180606001604052806060815260200160608152602001606081525090565b6116e791905b808211156116e35760008160009055506001016116cb565b5090565b90565b600082601f8301126116fb57600080fd5b813561170e61170982611e1f565b611df2565b9150818183526020840193506020810190508360005b83811015611754578135860161173a888261175e565b845260208401935060208301925050600181019050611724565b5050505092915050565b600082601f83011261176f57600080fd5b813561178261177d82611e47565b611df2565b9150808252602083016020830185838301111561179e57600080fd5b6117a9838284611f6a565b50505092915050565b600082601f8301126117c357600080fd5b81356117d66117d182611e73565b611df2565b915080825260208301602083018583830111156117f257600080fd5b6117fd838284611f6a565b50505092915050565b60008135905061181581611fbd565b92915050565b60008060006060848603121561183057600080fd5b600084013567ffffffffffffffff81111561184a57600080fd5b611856868287016116ea565b935050602084013567ffffffffffffffff81111561187357600080fd5b61187f868287016116ea565b925050604084013567ffffffffffffffff81111561189c57600080fd5b6118a8868287016116ea565b9150509250925092565b6000602082840312156118c457600080fd5b600082013567ffffffffffffffff8111156118de57600080fd5b6118ea8482850161175e565b91505092915050565b60006020828403121561190557600080fd5b600082013567ffffffffffffffff81111561191f57600080fd5b61192b848285016117b2565b91505092915050565b60008060006060848603121561194957600080fd5b600084013567ffffffffffffffff81111561196357600080fd5b61196f868287016117b2565b935050602084013567ffffffffffffffff81111561198c57600080fd5b611998868287016117b2565b925050604084013567ffffffffffffffff8111156119b557600080fd5b6119c1868287016117b2565b9150509250925092565b600080604083850312156119de57600080fd5b600083013567ffffffffffffffff8111156119f857600080fd5b611a048582860161175e565b9250506020611a1585828601611806565b9150509250929050565b6000611a2b8383611be3565b905092915050565b6000611a3f8383611c41565b905092915050565b6000611a5282611ebf565b611a5c8185611f05565b935083602082028501611a6e85611e9f565b8060005b85811015611aaa5784840389528151611a8b8582611a1f565b9450611a9683611eeb565b925060208a01995050600181019050611a72565b50829750879550505050505092915050565b6000611ac782611eca565b611ad18185611f16565b935083602082028501611ae385611eaf565b8060005b85811015611b1f5784840389528151611b008582611a33565b9450611b0b83611ef8565b925060208a01995050600181019050611ae7565b50829750879550505050505092915050565b611b3a81611f54565b82525050565b6000611b4b82611ee0565b611b558185611f49565b9350611b65818560208601611f79565b80840191505092915050565b6000611b7c82611ed5565b611b868185611f27565b9350611b96818560208601611f79565b611b9f81611fac565b840191505092915050565b6000611bb582611ed5565b611bbf8185611f38565b9350611bcf818560208601611f79565b611bd881611fac565b840191505092915050565b60006060830160008301518482036000860152611c008282611b71565b91505060208301518482036020860152611c1a8282611b71565b91505060408301518482036040860152611c348282611b71565b9150508091505092915050565b60006060830160008301518482036000860152611c5e8282611b71565b91505060208301518482036020860152611c788282611b71565b91505060408301518482036040860152611c928282611b71565b9150508091505092915050565b611ca881611f60565b82525050565b6000611cba8284611b40565b915081905092915050565b60006020820190508181036000830152611cdf8184611a47565b905092915050565b60006020820190508181036000830152611d018184611abc565b905092915050565b6000602082019050611d1e6000830184611b31565b92915050565b60006020820190508181036000830152611d3e8184611baa565b905092915050565b60006060820190508181036000830152611d608186611baa565b90508181036020830152611d748185611baa565b90508181036040830152611d888184611baa565b9050949350505050565b60006060820190508181036000830152611dac8186611baa565b90508181036020830152611dc08185611baa565b9050611dcf6040830184611c9f565b949350505050565b6000602082019050611dec6000830184611c9f565b92915050565b6000604051905081810181811067ffffffffffffffff82111715611e1557600080fd5b8060405250919050565b600067ffffffffffffffff821115611e3657600080fd5b602082029050602081019050919050565b600067ffffffffffffffff821115611e5e57600080fd5b601f19601f8301169050602081019050919050565b600067ffffffffffffffff821115611e8a57600080fd5b601f19601f8301169050602081019050919050565b6000819050602082019050919050565b6000819050602082019050919050565b600081519050919050565b600081519050919050565b600081519050919050565b600081519050919050565b6000602082019050919050565b6000602082019050919050565b600082825260208201905092915050565b600082825260208201905092915050565b600082825260208201905092915050565b600082825260208201905092915050565b600081905092915050565b60008115159050919050565b6000819050919050565b82818337600083830152505050565b60005b83811015611f97578082015181840152602081019050611f7c565b83811115611fa6576000848401525b50505050565b6000601f19601f8301169050919050565b611fc681611f60565b8114611fd157600080fd5b5056fea365627a7a723158201b5e773d1b50f65dfd87622bbc370f42b5b45f4e7e4e2db15b681460f3f987866c6578706572696d656e74616cf564736f6c63430005100040",
  "source": "pragma solidity >=0.4.22 <0.7.0; \npragma experimental ABIEncoderV2; \n\n/** \n * @title Event\n * @dev Implements storing transactions information for the event\n */\ncontract Event { \n    string public eventName; \n    address private owner; \n    uint public totalSales; \n    \n    constructor() public { \n        owner = msg.sender; \n        totalSales = 0; \n    }\n\n    struct Scan { \n        string ticketid; \n        string scanDescription; \n        string scannedAt; \n    } \n     \n    struct Ticket { \n        string ticketid;\n        string ticketOwner;\n        uint ownerPosition;\n    } \n     \n    struct User { \n        string ticketid; \n        string userid; \n        string purchasedAt; \n    } \n     \n    mapping(string => Ticket) public mapTickets; \n    mapping(string => User[]) public mapPurchasers; \n    mapping(string => Scan[]) public mapScans; \n     \n    modifier isOwner() { \n        require(msg.sender == owner); \n        _; \n    } \n    \n    modifier ticketExist(string memory ticketId){\n        require(_ticketExist(ticketId));\n        _;\n    }\n    \n    function _ticketExist(string memory ticketId) private returns (bool){\n        return bytes(mapTickets[ticketId].ticketid).length != 0;\n    }\n    \n    /**\n     * @dev setNewEventName value in if the title is empty this will set the new event name\n     * @param newEventName value to set the new event name\n     */\n    function setNewEventName(string memory newEventName) public isOwner returns (bool){\n        if (bytes(eventName).length != 0){\n            revert();\n        }\n        eventName = newEventName;\n    }\n    \n    /**\n     * @dev sell a new ticket for the event.\n     * @param newTicketId value of the ticket ids for the event.\n     * @param userId value of the new owner of the ticket.\n     * @param purchasedAt date of the ticket purchase.\n     */\n    function addTicket(string memory newTicketId, string memory userId, string memory purchasedAt) public isOwner returns (bool){ \n            uint currentSales = totalSales;\n            if(_ticketExist(newTicketId)) {\n                revert();\n                return false;\n            }\n            Ticket memory newTicket = Ticket({ \n                ticketid: newTicketId,\n                ticketOwner: userId,\n                ownerPosition: 0\n            }); \n            mapTickets[newTicketId] = newTicket; \n            \n            addPurchasers(newTicketId, userId, purchasedAt);\n            totalSales++;\n        return currentSales < totalSales;\n    } \n     \n     \n    /**\n     * @dev sell a list of new tickets for the event.\n     * @param newTicketsId value of the tickets ids for the event.\n     * @param usersId value of the new owner of the ticket.\n     * @param purchasedAt date of the ticket purchase.\n     */\n    function addTicketList(string[] memory newTicketsId, string[] memory usersId, string[] memory purchasedAt) public isOwner returns (bool){ \n        uint currentSales = totalSales;\n        uint ticketslength = newTicketsId.length;\n        uint usersIdlength = usersId.length;\n        uint purchasedAtlength = purchasedAt.length;\n        if(purchasedAtlength != usersIdlength && usersIdlength != ticketslength) {\n                revert();\n                return false;\n        }\n        for (uint i=0; i<ticketslength; i++) {\n            addTicket (newTicketsId[i], usersId[i], purchasedAt[i]);\n        }\n        return currentSales < totalSales;\n    } \n    \n    \n    /**\n     * @dev show the amount of tickets sold.\n     */\n    function getTotalSales() public isOwner view returns (uint){ \n        return totalSales; \n    } \n    \n    \n    /**\n     * @dev add a scan for the ticket.\n     * @param ticketId value of the ticket id for the event.\n     * @param scanName tiny description of the scan purpose for the ticket.\n     * @param scannedAt date of the ticket scaned.\n     */\n    function addScan(string memory ticketId, string memory scanName, string memory scannedAt) public isOwner ticketExist(ticketId) returns (bool){ \n        Scan memory newScan = Scan({ \n            ticketid: ticketId, \n            scanDescription: scanName, \n            scannedAt: scannedAt \n        }); \n        mapScans[ticketId].push(newScan); \n        return true;\n    }\n\n    /**\n     * @dev show a list of scans for the ticket.\n     * @param ticketId value of the ticket id for the event.\n     */\n    function getScans(string memory ticketId) public isOwner view returns (Scan[] memory){ \n        return mapScans[ticketId]; \n    } \n\n    /**\n     * @dev add a new purchaser for the ticket.\n     * @param ticketId value of the ticket id for the event.\n     * @param userid id value of the new owner of the ticket.\n     * @param purchasedAt date of the ticket purchase.\n     */\n    function addPurchasers(string memory ticketId, string memory userid, string memory purchasedAt) public isOwner ticketExist(ticketId) returns (bool){ \n        User memory purchaser = User({ \n            ticketid: ticketId, \n            userid: userid, \n            purchasedAt: purchasedAt \n        }); \n        mapPurchasers[ticketId].push(purchaser); \n        mapTickets[ticketId].ticketOwner = userid;\n        mapTickets[ticketId].ownerPosition = mapPurchasers[ticketId].length-1;\n        return true;\n    } \n\n    /**\n     * @dev show a list of purchasers for the ticket.\n     * @param ticketId value of the ticket id for the event.\n     */\n    function getPurchasers(string memory ticketId) public isOwner view returns (User[] memory){ \n        return mapPurchasers[ticketId]; \n    } \n}",
  "sourcePath": "/Users/lucas.lopez/Documents/facultad/ezTicket/ezticket-nodejs-sandbox-webservice/contracts/Event.sol",
  "compiler": {
    "name": "solc",
    "version": "0.5.16+commit.9c3226ce.Emscripten.clang"
  },
  "schemaVersion": "3.2.3",
  "updatedAt": "2020-08-16T21:00:16.685Z",
  "devdoc": {
    "details": "Implements storing transactions information for the event",
    "methods": {
      "addPurchasers(string,string,string)": {
        "details": "add a new purchaser for the ticket.",
        "params": {
          "purchasedAt": "date of the ticket purchase.",
          "ticketId": "value of the ticket id for the event.",
          "userid": "id value of the new owner of the ticket."
        }
      },
      "addScan(string,string,string)": {
        "details": "add a scan for the ticket.",
        "params": {
          "scanName": "tiny description of the scan purpose for the ticket.",
          "scannedAt": "date of the ticket scaned.",
          "ticketId": "value of the ticket id for the event."
        }
      },
      "addTicket(string,string,string)": {
        "details": "sell a new ticket for the event.",
        "params": {
          "newTicketId": "value of the ticket ids for the event.",
          "purchasedAt": "date of the ticket purchase.",
          "userId": "value of the new owner of the ticket."
        }
      },
      "addTicketList(string[],string[],string[])": {
        "details": "sell a list of new tickets for the event.",
        "params": {
          "newTicketsId": "value of the tickets ids for the event.",
          "purchasedAt": "date of the ticket purchase.",
          "usersId": "value of the new owner of the ticket."
        }
      },
      "getPurchasers(string)": {
        "details": "show a list of purchasers for the ticket.",
        "params": {
          "ticketId": "value of the ticket id for the event."
        }
      },
      "getScans(string)": {
        "details": "show a list of scans for the ticket.",
        "params": {
          "ticketId": "value of the ticket id for the event."
        }
      },
      "getTotalSales()": {
        "details": "show the amount of tickets sold."
      },
      "setNewEventName(string)": {
        "details": "setNewEventName value in if the title is empty this will set the new event name",
        "params": {
          "newEventName": "value to set the new event name"
        }
      }
    },
    "title": "Event"
  },
  "userdoc": {
    "methods": {}
  }
}