{
  "contractName": "Event",
  "abi": [
    {
      "inputs": [],
      "payable": false,
      "stateMutability": "nonpayable",
      "type": "constructor"
    },
    {
      "constant": true,
      "inputs": [],
      "name": "owner",
      "outputs": [
        {
          "internalType": "address",
          "name": "",
          "type": "address"
        }
      ],
      "payable": false,
      "stateMutability": "view",
      "type": "function"
    },
    {
      "constant": true,
      "inputs": [
        {
          "internalType": "uint256",
          "name": "",
          "type": "uint256"
        },
        {
          "internalType": "uint256",
          "name": "",
          "type": "uint256"
        }
      ],
      "name": "purchasers",
      "outputs": [
        {
          "internalType": "uint256",
          "name": "ticketid",
          "type": "uint256"
        },
        {
          "internalType": "string",
          "name": "name",
          "type": "string"
        },
        {
          "internalType": "string",
          "name": "date",
          "type": "string"
        }
      ],
      "payable": false,
      "stateMutability": "view",
      "type": "function"
    },
    {
      "constant": true,
      "inputs": [
        {
          "internalType": "uint256",
          "name": "",
          "type": "uint256"
        },
        {
          "internalType": "uint256",
          "name": "",
          "type": "uint256"
        }
      ],
      "name": "scans",
      "outputs": [
        {
          "internalType": "uint256",
          "name": "ticketid",
          "type": "uint256"
        },
        {
          "internalType": "string",
          "name": "name",
          "type": "string"
        },
        {
          "internalType": "string",
          "name": "date",
          "type": "string"
        }
      ],
      "payable": false,
      "stateMutability": "view",
      "type": "function"
    },
    {
      "constant": true,
      "inputs": [
        {
          "internalType": "uint256",
          "name": "",
          "type": "uint256"
        }
      ],
      "name": "tickets",
      "outputs": [
        {
          "internalType": "uint256",
          "name": "ticketid",
          "type": "uint256"
        }
      ],
      "payable": false,
      "stateMutability": "view",
      "type": "function"
    },
    {
      "constant": false,
      "inputs": [
        {
          "internalType": "uint256",
          "name": "ticketId",
          "type": "uint256"
        },
        {
          "internalType": "string",
          "name": "name",
          "type": "string"
        },
        {
          "internalType": "string",
          "name": "today",
          "type": "string"
        }
      ],
      "name": "addTicket",
      "outputs": [
        {
          "internalType": "bool",
          "name": "",
          "type": "bool"
        }
      ],
      "payable": false,
      "stateMutability": "nonpayable",
      "type": "function"
    },
    {
      "constant": true,
      "inputs": [],
      "name": "getTotalSales",
      "outputs": [
        {
          "internalType": "uint256",
          "name": "",
          "type": "uint256"
        }
      ],
      "payable": false,
      "stateMutability": "view",
      "type": "function"
    },
    {
      "constant": false,
      "inputs": [
        {
          "internalType": "uint256",
          "name": "ticketId",
          "type": "uint256"
        },
        {
          "internalType": "string",
          "name": "scanName",
          "type": "string"
        },
        {
          "internalType": "string",
          "name": "today",
          "type": "string"
        }
      ],
      "name": "addScan",
      "outputs": [],
      "payable": false,
      "stateMutability": "nonpayable",
      "type": "function"
    },
    {
      "constant": true,
      "inputs": [
        {
          "internalType": "uint256",
          "name": "ticketId",
          "type": "uint256"
        }
      ],
      "name": "getScans",
      "outputs": [
        {
          "components": [
            {
              "internalType": "uint256",
              "name": "ticketid",
              "type": "uint256"
            },
            {
              "internalType": "string",
              "name": "name",
              "type": "string"
            },
            {
              "internalType": "string",
              "name": "date",
              "type": "string"
            }
          ],
          "internalType": "struct Event.Scan[]",
          "name": "",
          "type": "tuple[]"
        }
      ],
      "payable": false,
      "stateMutability": "view",
      "type": "function"
    },
    {
      "constant": false,
      "inputs": [
        {
          "internalType": "uint256",
          "name": "ticketId",
          "type": "uint256"
        },
        {
          "internalType": "string",
          "name": "name",
          "type": "string"
        },
        {
          "internalType": "string",
          "name": "today",
          "type": "string"
        }
      ],
      "name": "addPurchasers",
      "outputs": [],
      "payable": false,
      "stateMutability": "nonpayable",
      "type": "function"
    },
    {
      "constant": true,
      "inputs": [
        {
          "internalType": "uint256",
          "name": "ticketId",
          "type": "uint256"
        }
      ],
      "name": "getPurchasers",
      "outputs": [
        {
          "components": [
            {
              "internalType": "uint256",
              "name": "ticketid",
              "type": "uint256"
            },
            {
              "internalType": "string",
              "name": "name",
              "type": "string"
            },
            {
              "internalType": "string",
              "name": "date",
              "type": "string"
            }
          ],
          "internalType": "struct Event.User[]",
          "name": "",
          "type": "tuple[]"
        }
      ],
      "payable": false,
      "stateMutability": "view",
      "type": "function"
    }
  ],
  "bytecode": "0x608060405234801561001057600080fd5b5033600160006101000a81548173ffffffffffffffffffffffffffffffffffffffff021916908373ffffffffffffffffffffffffffffffffffffffff16021790555060006002819055506114fc806100696000396000f3fe608060405234801561001057600080fd5b506004361061009e5760003560e01c80638da5cb5b116100665780638da5cb5b1461016d5780639530d1901461018b578063a43737e9146101bb578063b27c537d146101ed578063e6a73891146102095761009e565b80632156a96c146100a35780634308f053146100c157806350b44712146100dd5780636b9c546a1461010d57806377382fb61461013d575b600080fd5b6100ab61023b565b6040516100b891906112af565b60405180910390f35b6100db60048036036100d69190810190610f0c565b61029f565b005b6100f760048036036100f29190810190610ee3565b6103aa565b60405161010491906112af565b60405180910390f35b61012760048036036101229190810190610ee3565b6103c8565b6040516101349190611250565b60405180910390f35b61015760048036036101529190810190610f0c565b6105e2565b6040516101649190611294565b60405180910390f35b61017561074d565b6040516101829190611235565b60405180910390f35b6101a560048036036101a09190810190610ee3565b610773565b6040516101b29190611272565b60405180910390f35b6101d560048036036101d09190810190610f8b565b61098d565b6040516101e4939291906112ca565b60405180910390f35b61020760048036036102029190810190610f0c565b610b01565b005b610223600480360361021e9190810190610f8b565b610c0c565b604051610232939291906112ca565b60405180910390f35b6000600160009054906101000a900473ffffffffffffffffffffffffffffffffffffffff1673ffffffffffffffffffffffffffffffffffffffff163373ffffffffffffffffffffffffffffffffffffffff161461029757600080fd5b600254905090565b600160009054906101000a900473ffffffffffffffffffffffffffffffffffffffff1673ffffffffffffffffffffffffffffffffffffffff163373ffffffffffffffffffffffffffffffffffffffff16146102f957600080fd5b610301610d80565b6040518060600160405280858152602001848152602001838152509050600560008581526020019081526020016000208190806001815401808255809150509060018203906000526020600020906003020160009091929091909150600082015181600001556020820151816001019080519060200190610383929190610da1565b5060408201518160020190805190602001906103a0929190610da1565b5050505050505050565b60036020528060005260406000206000915090508060000154905081565b6060600160009054906101000a900473ffffffffffffffffffffffffffffffffffffffff1673ffffffffffffffffffffffffffffffffffffffff163373ffffffffffffffffffffffffffffffffffffffff161461042457600080fd5b60056000838152602001908152602001600020805480602002602001604051908101604052809291908181526020016000905b828210156105d7578382906000526020600020906003020160405180606001604052908160008201548152602001600182018054600181600116156101000203166002900480601f01602080910402602001604051908101604052809291908181526020018280546001816001161561010002031660029004801561051d5780601f106104f25761010080835404028352916020019161051d565b820191906000526020600020905b81548152906001019060200180831161050057829003601f168201915b50505050508152602001600282018054600181600116156101000203166002900480601f0160208091040260200160405190810160405280929190818152602001828054600181600116156101000203166002900480156105bf5780601f10610594576101008083540402835291602001916105bf565b820191906000526020600020905b8154815290600101906020018083116105a257829003601f168201915b50505050508152505081526020019060010190610457565b505050509050919050565b6000600160009054906101000a900473ffffffffffffffffffffffffffffffffffffffff1673ffffffffffffffffffffffffffffffffffffffff163373ffffffffffffffffffffffffffffffffffffffff161461063e57600080fd5b610646610e21565b6040518060200160405280868152509050806003600087815260200190815260200160002060008201518160000155905050610680610e34565b6040518060600160405280878152602001868152602001858152509050600460008781526020019081526020016000208190806001815401808255809150509060018203906000526020600020906003020160009091929091909150600082015181600001556020820151816001019080519060200190610702929190610da1565b50604082015181600201908051906020019061071f929190610da1565b5050505060006002549050600260008154809291906001019190505550600254811093505050509392505050565b600160009054906101000a900473ffffffffffffffffffffffffffffffffffffffff1681565b6060600160009054906101000a900473ffffffffffffffffffffffffffffffffffffffff1673ffffffffffffffffffffffffffffffffffffffff163373ffffffffffffffffffffffffffffffffffffffff16146107cf57600080fd5b60046000838152602001908152602001600020805480602002602001604051908101604052809291908181526020016000905b82821015610982578382906000526020600020906003020160405180606001604052908160008201548152602001600182018054600181600116156101000203166002900480601f0160208091040260200160405190810160405280929190818152602001828054600181600116156101000203166002900480156108c85780601f1061089d576101008083540402835291602001916108c8565b820191906000526020600020905b8154815290600101906020018083116108ab57829003601f168201915b50505050508152602001600282018054600181600116156101000203166002900480601f01602080910402602001604051908101604052809291908181526020018280546001816001161561010002031660029004801561096a5780601f1061093f5761010080835404028352916020019161096a565b820191906000526020600020905b81548152906001019060200180831161094d57829003601f168201915b50505050508152505081526020019060010190610802565b505050509050919050565b600460205281600052604060002081815481106109a657fe5b906000526020600020906003020160009150915050806000015490806001018054600181600116156101000203166002900480601f016020809104026020016040519081016040528092919081815260200182805460018160011615610100020316600290048015610a595780601f10610a2e57610100808354040283529160200191610a59565b820191906000526020600020905b815481529060010190602001808311610a3c57829003601f168201915b505050505090806002018054600181600116156101000203166002900480601f016020809104026020016040519081016040528092919081815260200182805460018160011615610100020316600290048015610af75780601f10610acc57610100808354040283529160200191610af7565b820191906000526020600020905b815481529060010190602001808311610ada57829003601f168201915b5050505050905083565b600160009054906101000a900473ffffffffffffffffffffffffffffffffffffffff1673ffffffffffffffffffffffffffffffffffffffff163373ffffffffffffffffffffffffffffffffffffffff1614610b5b57600080fd5b610b63610e34565b6040518060600160405280858152602001848152602001838152509050600460008581526020019081526020016000208190806001815401808255809150509060018203906000526020600020906003020160009091929091909150600082015181600001556020820151816001019080519060200190610be5929190610da1565b506040820151816002019080519060200190610c02929190610da1565b5050505050505050565b60056020528160005260406000208181548110610c2557fe5b906000526020600020906003020160009150915050806000015490806001018054600181600116156101000203166002900480601f016020809104026020016040519081016040528092919081815260200182805460018160011615610100020316600290048015610cd85780601f10610cad57610100808354040283529160200191610cd8565b820191906000526020600020905b815481529060010190602001808311610cbb57829003601f168201915b505050505090806002018054600181600116156101000203166002900480601f016020809104026020016040519081016040528092919081815260200182805460018160011615610100020316600290048015610d765780601f10610d4b57610100808354040283529160200191610d76565b820191906000526020600020905b815481529060010190602001808311610d5957829003601f168201915b5050505050905083565b60405180606001604052806000815260200160608152602001606081525090565b828054600181600116156101000203166002900490600052602060002090601f016020900481019282601f10610de257805160ff1916838001178555610e10565b82800160010185558215610e10579182015b82811115610e0f578251825591602001919060010190610df4565b5b509050610e1d9190610e55565b5090565b6040518060200160405280600081525090565b60405180606001604052806000815260200160608152602001606081525090565b610e7791905b80821115610e73576000816000905550600101610e5b565b5090565b90565b600082601f830112610e8b57600080fd5b8135610e9e610e998261133c565b61130f565b91508082526020830160208301858383011115610eba57600080fd5b610ec583828461144f565b50505092915050565b600081359050610edd816114a2565b92915050565b600060208284031215610ef557600080fd5b6000610f0384828501610ece565b91505092915050565b600080600060608486031215610f2157600080fd5b6000610f2f86828701610ece565b935050602084013567ffffffffffffffff811115610f4c57600080fd5b610f5886828701610e7a565b925050604084013567ffffffffffffffff811115610f7557600080fd5b610f8186828701610e7a565b9150509250925092565b60008060408385031215610f9e57600080fd5b6000610fac85828601610ece565b9250506020610fbd85828601610ece565b9150509250929050565b6000610fd38383611169565b905092915050565b6000610fe783836111c0565b905092915050565b610ff881611407565b82525050565b600061100982611388565b61101381856113c3565b93508360208202850161102585611368565b8060005b8581101561106157848403895281516110428582610fc7565b945061104d836113a9565b925060208a01995050600181019050611029565b50829750879550505050505092915050565b600061107e82611393565b61108881856113d4565b93508360208202850161109a85611378565b8060005b858110156110d657848403895281516110b78582610fdb565b94506110c2836113b6565b925060208a0199505060018101905061109e565b50829750879550505050505092915050565b6110f181611419565b82525050565b60006111028261139e565b61110c81856113e5565b935061111c81856020860161145e565b61112581611491565b840191505092915050565b600061113b8261139e565b61114581856113f6565b935061115581856020860161145e565b61115e81611491565b840191505092915050565b60006060830160008301516111816000860182611217565b506020830151848203602086015261119982826110f7565b915050604083015184820360408601526111b382826110f7565b9150508091505092915050565b60006060830160008301516111d86000860182611217565b50602083015184820360208601526111f082826110f7565b9150506040830151848203604086015261120a82826110f7565b9150508091505092915050565b61122081611445565b82525050565b61122f81611445565b82525050565b600060208201905061124a6000830184610fef565b92915050565b6000602082019050818103600083015261126a8184610ffe565b905092915050565b6000602082019050818103600083015261128c8184611073565b905092915050565b60006020820190506112a960008301846110e8565b92915050565b60006020820190506112c46000830184611226565b92915050565b60006060820190506112df6000830186611226565b81810360208301526112f18185611130565b905081810360408301526113058184611130565b9050949350505050565b6000604051905081810181811067ffffffffffffffff8211171561133257600080fd5b8060405250919050565b600067ffffffffffffffff82111561135357600080fd5b601f19601f8301169050602081019050919050565b6000819050602082019050919050565b6000819050602082019050919050565b600081519050919050565b600081519050919050565b600081519050919050565b6000602082019050919050565b6000602082019050919050565b600082825260208201905092915050565b600082825260208201905092915050565b600082825260208201905092915050565b600082825260208201905092915050565b600061141282611425565b9050919050565b60008115159050919050565b600073ffffffffffffffffffffffffffffffffffffffff82169050919050565b6000819050919050565b82818337600083830152505050565b60005b8381101561147c578082015181840152602081019050611461565b8381111561148b576000848401525b50505050565b6000601f19601f8301169050919050565b6114ab81611445565b81146114b657600080fd5b5056fea365627a7a723158208ff396678cc7fb26f759bfe089f5a51da0aa8170480e0ce2e9ca806b2bd39f216c6578706572696d656e74616cf564736f6c63430005100040",
  "source": "pragma solidity >=0.4.22 <0.7.0; \npragma experimental ABIEncoderV2; \n\ncontract Event { \n    string eventName; \n    address public owner; \n    uint totalSales; \n     \n    constructor() public { \n        owner = msg.sender; \n        totalSales = 0; \n    } \n\n    struct Scan { \n        uint ticketid; \n        string name; \n        string date; \n    } \n     \n    struct Ticket { \n        uint ticketid; \n    } \n     \n    struct User { \n        uint ticketid; \n        string name; \n        string date; \n    } \n     \n    mapping(uint => Ticket) public tickets; \n    mapping(uint => User[]) public purchasers; \n    mapping(uint => Scan[]) public scans; \n     \n    modifier isOwner() { \n        require(msg.sender == owner); \n        _; \n    } \n     \n    function addTicket(uint ticketId, string memory name, string memory today) public isOwner returns (bool){ \n        Ticket memory newTicket = Ticket({ \n            ticketid: ticketId \n        }); \n        tickets[ticketId] = newTicket; \n        User memory purchaser = User({ \n            ticketid: ticketId, \n            name: name, \n            date: today \n        }); \n        purchasers[ticketId].push(purchaser);\n        uint currentSales = totalSales;\n        totalSales++;\n        return currentSales < totalSales;\n    } \n\n    function getTotalSales() public isOwner view returns (uint){ \n        return totalSales; \n    } \n     \n    function addScan(uint ticketId, string memory scanName, string memory today) public isOwner { \n        Scan memory newScan = Scan({ \n            ticketid: ticketId, \n            name: scanName, \n            date: today \n        }); \n        scans[ticketId].push(newScan); \n    }\n\n    function getScans(uint ticketId) public isOwner view returns (Scan[] memory){ \n        return scans[ticketId]; \n    } \n\n    function addPurchasers(uint ticketId, string memory name, string memory today) public isOwner { \n        User memory purchaser = User({ \n            ticketid: ticketId, \n            name: name, \n            date: today \n        }); \n        purchasers[ticketId].push(purchaser); \n    } \n\n    function getPurchasers(uint ticketId) public isOwner view returns (User[] memory){ \n        return purchasers[ticketId]; \n    } \n}",
  "sourcePath": "/Users/lucas.lopez/Documents/facultad/ezTicket/ezticket-nodejs-sandbox-webservice/contracts/Event.sol",
  "compiler": {
    "name": "solc",
    "version": "0.5.16+commit.9c3226ce.Emscripten.clang"
  },
  "schemaVersion": "3.2.3",
  "updatedAt": "2020-08-07T02:36:11.056Z",
  "networkType": "ethereum",
  "devdoc": {
    "methods": {}
  },
  "userdoc": {
    "methods": {}
  }
}